{
  "_format": "hh-sol-artifact-1",
  "contractName": "Mfa",
  "sourceName": "contracts/Mfa.sol",
  "abi": [
    {
      "inputs": [],
      "stateMutability": "nonpayable",
      "type": "constructor"
    },
    {
      "inputs": [],
      "name": "AccessControlBadConfirmation",
      "type": "error"
    },
    {
      "inputs": [
        {
          "internalType": "address",
          "name": "account",
          "type": "address"
        },
        {
          "internalType": "bytes32",
          "name": "neededRole",
          "type": "bytes32"
        }
      ],
      "name": "AccessControlUnauthorizedAccount",
      "type": "error"
    },
    {
      "inputs": [],
      "name": "ERC721EnumerableForbiddenBatchMint",
      "type": "error"
    },
    {
      "inputs": [
        {
          "internalType": "address",
          "name": "sender",
          "type": "address"
        },
        {
          "internalType": "uint256",
          "name": "tokenId",
          "type": "uint256"
        },
        {
          "internalType": "address",
          "name": "owner",
          "type": "address"
        }
      ],
      "name": "ERC721IncorrectOwner",
      "type": "error"
    },
    {
      "inputs": [
        {
          "internalType": "address",
          "name": "operator",
          "type": "address"
        },
        {
          "internalType": "uint256",
          "name": "tokenId",
          "type": "uint256"
        }
      ],
      "name": "ERC721InsufficientApproval",
      "type": "error"
    },
    {
      "inputs": [
        {
          "internalType": "address",
          "name": "approver",
          "type": "address"
        }
      ],
      "name": "ERC721InvalidApprover",
      "type": "error"
    },
    {
      "inputs": [
        {
          "internalType": "address",
          "name": "operator",
          "type": "address"
        }
      ],
      "name": "ERC721InvalidOperator",
      "type": "error"
    },
    {
      "inputs": [
        {
          "internalType": "address",
          "name": "owner",
          "type": "address"
        }
      ],
      "name": "ERC721InvalidOwner",
      "type": "error"
    },
    {
      "inputs": [
        {
          "internalType": "address",
          "name": "receiver",
          "type": "address"
        }
      ],
      "name": "ERC721InvalidReceiver",
      "type": "error"
    },
    {
      "inputs": [
        {
          "internalType": "address",
          "name": "sender",
          "type": "address"
        }
      ],
      "name": "ERC721InvalidSender",
      "type": "error"
    },
    {
      "inputs": [
        {
          "internalType": "uint256",
          "name": "tokenId",
          "type": "uint256"
        }
      ],
      "name": "ERC721NonexistentToken",
      "type": "error"
    },
    {
      "inputs": [
        {
          "internalType": "address",
          "name": "owner",
          "type": "address"
        },
        {
          "internalType": "uint256",
          "name": "index",
          "type": "uint256"
        }
      ],
      "name": "ERC721OutOfBoundsIndex",
      "type": "error"
    },
    {
      "anonymous": false,
      "inputs": [
        {
          "indexed": false,
          "internalType": "uint256",
          "name": "appId",
          "type": "uint256"
        },
        {
          "indexed": false,
          "internalType": "bytes32",
          "name": "appName",
          "type": "bytes32"
        }
      ],
      "name": "AppAdded",
      "type": "event"
    },
    {
      "anonymous": false,
      "inputs": [
        {
          "indexed": true,
          "internalType": "address",
          "name": "owner",
          "type": "address"
        },
        {
          "indexed": true,
          "internalType": "address",
          "name": "approved",
          "type": "address"
        },
        {
          "indexed": true,
          "internalType": "uint256",
          "name": "tokenId",
          "type": "uint256"
        }
      ],
      "name": "Approval",
      "type": "event"
    },
    {
      "anonymous": false,
      "inputs": [
        {
          "indexed": true,
          "internalType": "address",
          "name": "owner",
          "type": "address"
        },
        {
          "indexed": true,
          "internalType": "address",
          "name": "operator",
          "type": "address"
        },
        {
          "indexed": false,
          "internalType": "bool",
          "name": "approved",
          "type": "bool"
        }
      ],
      "name": "ApprovalForAll",
      "type": "event"
    },
    {
      "anonymous": false,
      "inputs": [
        {
          "indexed": false,
          "internalType": "uint256",
          "name": "appId",
          "type": "uint256"
        },
        {
          "indexed": false,
          "internalType": "bytes32",
          "name": "appName",
          "type": "bytes32"
        }
      ],
      "name": "Registered",
      "type": "event"
    },
    {
      "anonymous": false,
      "inputs": [
        {
          "indexed": true,
          "internalType": "bytes32",
          "name": "role",
          "type": "bytes32"
        },
        {
          "indexed": true,
          "internalType": "bytes32",
          "name": "previousAdminRole",
          "type": "bytes32"
        },
        {
          "indexed": true,
          "internalType": "bytes32",
          "name": "newAdminRole",
          "type": "bytes32"
        }
      ],
      "name": "RoleAdminChanged",
      "type": "event"
    },
    {
      "anonymous": false,
      "inputs": [
        {
          "indexed": true,
          "internalType": "bytes32",
          "name": "role",
          "type": "bytes32"
        },
        {
          "indexed": true,
          "internalType": "address",
          "name": "account",
          "type": "address"
        },
        {
          "indexed": true,
          "internalType": "address",
          "name": "sender",
          "type": "address"
        }
      ],
      "name": "RoleGranted",
      "type": "event"
    },
    {
      "anonymous": false,
      "inputs": [
        {
          "indexed": true,
          "internalType": "bytes32",
          "name": "role",
          "type": "bytes32"
        },
        {
          "indexed": true,
          "internalType": "address",
          "name": "account",
          "type": "address"
        },
        {
          "indexed": true,
          "internalType": "address",
          "name": "sender",
          "type": "address"
        }
      ],
      "name": "RoleRevoked",
      "type": "event"
    },
    {
      "anonymous": false,
      "inputs": [
        {
          "indexed": true,
          "internalType": "address",
          "name": "from",
          "type": "address"
        },
        {
          "indexed": true,
          "internalType": "address",
          "name": "to",
          "type": "address"
        },
        {
          "indexed": true,
          "internalType": "uint256",
          "name": "tokenId",
          "type": "uint256"
        }
      ],
      "name": "Transfer",
      "type": "event"
    },
    {
      "inputs": [],
      "name": "DEFAULT_ADMIN_ROLE",
      "outputs": [
        {
          "internalType": "bytes32",
          "name": "",
          "type": "bytes32"
        }
      ],
      "stateMutability": "view",
      "type": "function"
    },
    {
      "inputs": [],
      "name": "MINTER_ROLE",
      "outputs": [
        {
          "internalType": "bytes32",
          "name": "",
          "type": "bytes32"
        }
      ],
      "stateMutability": "view",
      "type": "function"
    },
    {
      "inputs": [
        {
          "internalType": "uint256",
          "name": "newAppId",
          "type": "uint256"
        },
        {
          "internalType": "bytes32",
          "name": "appName",
          "type": "bytes32"
        }
      ],
      "name": "addApp",
      "outputs": [],
      "stateMutability": "nonpayable",
      "type": "function"
    },
    {
      "inputs": [
        {
          "internalType": "address",
          "name": "to",
          "type": "address"
        },
        {
          "internalType": "uint256",
          "name": "tokenId",
          "type": "uint256"
        }
      ],
      "name": "approve",
      "outputs": [],
      "stateMutability": "nonpayable",
      "type": "function"
    },
    {
      "inputs": [
        {
          "internalType": "address",
          "name": "owner",
          "type": "address"
        }
      ],
      "name": "balanceOf",
      "outputs": [
        {
          "internalType": "uint256",
          "name": "",
          "type": "uint256"
        }
      ],
      "stateMutability": "view",
      "type": "function"
    },
    {
      "inputs": [],
      "name": "getAppIds",
      "outputs": [
        {
          "internalType": "uint256[]",
          "name": "",
          "type": "uint256[]"
        }
      ],
      "stateMutability": "view",
      "type": "function"
    },
    {
      "inputs": [
        {
          "internalType": "uint256",
          "name": "appId",
          "type": "uint256"
        }
      ],
      "name": "getAppName",
      "outputs": [
        {
          "internalType": "bytes32",
          "name": "",
          "type": "bytes32"
        }
      ],
      "stateMutability": "view",
      "type": "function"
    },
    {
      "inputs": [
        {
          "internalType": "uint256",
          "name": "tokenId",
          "type": "uint256"
        }
      ],
      "name": "getApproved",
      "outputs": [
        {
          "internalType": "address",
          "name": "",
          "type": "address"
        }
      ],
      "stateMutability": "view",
      "type": "function"
    },
    {
      "inputs": [
        {
          "internalType": "bytes32",
          "name": "role",
          "type": "bytes32"
        }
      ],
      "name": "getRoleAdmin",
      "outputs": [
        {
          "internalType": "bytes32",
          "name": "",
          "type": "bytes32"
        }
      ],
      "stateMutability": "view",
      "type": "function"
    },
    {
      "inputs": [
        {
          "internalType": "bytes32",
          "name": "role",
          "type": "bytes32"
        },
        {
          "internalType": "address",
          "name": "account",
          "type": "address"
        }
      ],
      "name": "grantRole",
      "outputs": [],
      "stateMutability": "nonpayable",
      "type": "function"
    },
    {
      "inputs": [
        {
          "internalType": "bytes32",
          "name": "role",
          "type": "bytes32"
        },
        {
          "internalType": "address",
          "name": "account",
          "type": "address"
        }
      ],
      "name": "hasRole",
      "outputs": [
        {
          "internalType": "bool",
          "name": "",
          "type": "bool"
        }
      ],
      "stateMutability": "view",
      "type": "function"
    },
    {
      "inputs": [
        {
          "internalType": "address",
          "name": "owner",
          "type": "address"
        },
        {
          "internalType": "address",
          "name": "operator",
          "type": "address"
        }
      ],
      "name": "isApprovedForAll",
      "outputs": [
        {
          "internalType": "bool",
          "name": "",
          "type": "bool"
        }
      ],
      "stateMutability": "view",
      "type": "function"
    },
    {
      "inputs": [
        {
          "internalType": "uint256",
          "name": "appId",
          "type": "uint256"
        },
        {
          "internalType": "bytes32",
          "name": "username",
          "type": "bytes32"
        }
      ],
      "name": "isRegistered",
      "outputs": [
        {
          "internalType": "bool",
          "name": "",
          "type": "bool"
        }
      ],
      "stateMutability": "view",
      "type": "function"
    },
    {
      "inputs": [],
      "name": "name",
      "outputs": [
        {
          "internalType": "string",
          "name": "",
          "type": "string"
        }
      ],
      "stateMutability": "view",
      "type": "function"
    },
    {
      "inputs": [
        {
          "internalType": "uint256",
          "name": "tokenId",
          "type": "uint256"
        }
      ],
      "name": "ownerOf",
      "outputs": [
        {
          "internalType": "address",
          "name": "",
          "type": "address"
        }
      ],
      "stateMutability": "view",
      "type": "function"
    },
    {
      "inputs": [
        {
          "internalType": "uint256",
          "name": "appId",
          "type": "uint256"
        },
        {
          "internalType": "bytes32",
          "name": "username",
          "type": "bytes32"
        }
      ],
      "name": "register",
      "outputs": [],
      "stateMutability": "nonpayable",
      "type": "function"
    },
    {
      "inputs": [
        {
          "internalType": "bytes32",
          "name": "role",
          "type": "bytes32"
        },
        {
          "internalType": "address",
          "name": "callerConfirmation",
          "type": "address"
        }
      ],
      "name": "renounceRole",
      "outputs": [],
      "stateMutability": "nonpayable",
      "type": "function"
    },
    {
      "inputs": [
        {
          "internalType": "bytes32",
          "name": "role",
          "type": "bytes32"
        },
        {
          "internalType": "address",
          "name": "account",
          "type": "address"
        }
      ],
      "name": "revokeRole",
      "outputs": [],
      "stateMutability": "nonpayable",
      "type": "function"
    },
    {
      "inputs": [
        {
          "internalType": "address",
          "name": "to",
          "type": "address"
        }
      ],
      "name": "safeMint",
      "outputs": [],
      "stateMutability": "nonpayable",
      "type": "function"
    },
    {
      "inputs": [
        {
          "internalType": "address",
          "name": "from",
          "type": "address"
        },
        {
          "internalType": "address",
          "name": "to",
          "type": "address"
        },
        {
          "internalType": "uint256",
          "name": "tokenId",
          "type": "uint256"
        }
      ],
      "name": "safeTransferFrom",
      "outputs": [],
      "stateMutability": "nonpayable",
      "type": "function"
    },
    {
      "inputs": [
        {
          "internalType": "address",
          "name": "from",
          "type": "address"
        },
        {
          "internalType": "address",
          "name": "to",
          "type": "address"
        },
        {
          "internalType": "uint256",
          "name": "tokenId",
          "type": "uint256"
        },
        {
          "internalType": "bytes",
          "name": "data",
          "type": "bytes"
        }
      ],
      "name": "safeTransferFrom",
      "outputs": [],
      "stateMutability": "nonpayable",
      "type": "function"
    },
    {
      "inputs": [
        {
          "internalType": "address",
          "name": "operator",
          "type": "address"
        },
        {
          "internalType": "bool",
          "name": "approved",
          "type": "bool"
        }
      ],
      "name": "setApprovalForAll",
      "outputs": [],
      "stateMutability": "nonpayable",
      "type": "function"
    },
    {
      "inputs": [
        {
          "internalType": "bytes4",
          "name": "interfaceId",
          "type": "bytes4"
        }
      ],
      "name": "supportsInterface",
      "outputs": [
        {
          "internalType": "bool",
          "name": "",
          "type": "bool"
        }
      ],
      "stateMutability": "view",
      "type": "function"
    },
    {
      "inputs": [],
      "name": "symbol",
      "outputs": [
        {
          "internalType": "string",
          "name": "",
          "type": "string"
        }
      ],
      "stateMutability": "view",
      "type": "function"
    },
    {
      "inputs": [
        {
          "internalType": "uint256",
          "name": "index",
          "type": "uint256"
        }
      ],
      "name": "tokenByIndex",
      "outputs": [
        {
          "internalType": "uint256",
          "name": "",
          "type": "uint256"
        }
      ],
      "stateMutability": "view",
      "type": "function"
    },
    {
      "inputs": [
        {
          "internalType": "address",
          "name": "owner",
          "type": "address"
        },
        {
          "internalType": "uint256",
          "name": "index",
          "type": "uint256"
        }
      ],
      "name": "tokenOfOwnerByIndex",
      "outputs": [
        {
          "internalType": "uint256",
          "name": "",
          "type": "uint256"
        }
      ],
      "stateMutability": "view",
      "type": "function"
    },
    {
      "inputs": [
        {
          "internalType": "uint256",
          "name": "tokenId",
          "type": "uint256"
        }
      ],
      "name": "tokenURI",
      "outputs": [
        {
          "internalType": "string",
          "name": "",
          "type": "string"
        }
      ],
      "stateMutability": "view",
      "type": "function"
    },
    {
      "inputs": [],
      "name": "totalSupply",
      "outputs": [
        {
          "internalType": "uint256",
          "name": "",
          "type": "uint256"
        }
      ],
      "stateMutability": "view",
      "type": "function"
    },
    {
      "inputs": [
        {
          "internalType": "address",
          "name": "from",
          "type": "address"
        },
        {
          "internalType": "address",
          "name": "to",
          "type": "address"
        },
        {
          "internalType": "uint256",
          "name": "tokenId",
          "type": "uint256"
        }
      ],
      "name": "transferFrom",
      "outputs": [],
      "stateMutability": "nonpayable",
      "type": "function"
    }
  ],
  "bytecode": "0x60806040523480156200001157600080fd5b506040518060400160405280600381526020017f4d666100000000000000000000000000000000000000000000000000000000008152506040518060400160405280600381526020017f4d4641000000000000000000000000000000000000000000000000000000000081525081600090816200008f9190620004e4565b508060019081620000a19190620004e4565b505050620000b96000801b33620000f360201b60201c565b50620000ec7f9f2df0fed2c77648de5860a4cc508cd0818c85b8b8a1ab4ceeef8d981c8956a633620000f360201b60201c565b50620005cb565b6000620001078383620001f760201b60201c565b620001ec576001600a600085815260200190815260200160002060000160008473ffffffffffffffffffffffffffffffffffffffff1673ffffffffffffffffffffffffffffffffffffffff16815260200190815260200160002060006101000a81548160ff021916908315150217905550620001886200026260201b60201c565b73ffffffffffffffffffffffffffffffffffffffff168273ffffffffffffffffffffffffffffffffffffffff16847f2f8788117e7eff1d82e926ec794901d17c78024a50270940304540a733656f0d60405160405180910390a460019050620001f1565b600090505b92915050565b6000600a600084815260200190815260200160002060000160008373ffffffffffffffffffffffffffffffffffffffff1673ffffffffffffffffffffffffffffffffffffffff16815260200190815260200160002060009054906101000a900460ff16905092915050565b600033905090565b600081519050919050565b7f4e487b7100000000000000000000000000000000000000000000000000000000600052604160045260246000fd5b7f4e487b7100000000000000000000000000000000000000000000000000000000600052602260045260246000fd5b60006002820490506001821680620002ec57607f821691505b602082108103620003025762000301620002a4565b5b50919050565b60008190508160005260206000209050919050565b60006020601f8301049050919050565b600082821b905092915050565b6000600883026200036c7fffffffffffffffffffffffffffffffffffffffffffffffffffffffffffffffff826200032d565b6200037886836200032d565b95508019841693508086168417925050509392505050565b6000819050919050565b6000819050919050565b6000620003c5620003bf620003b98462000390565b6200039a565b62000390565b9050919050565b6000819050919050565b620003e183620003a4565b620003f9620003f082620003cc565b8484546200033a565b825550505050565b600090565b6200041062000401565b6200041d818484620003d6565b505050565b5b8181101562000445576200043960008262000406565b60018101905062000423565b5050565b601f82111562000494576200045e8162000308565b62000469846200031d565b8101602085101562000479578190505b6200049162000488856200031d565b83018262000422565b50505b505050565b600082821c905092915050565b6000620004b96000198460080262000499565b1980831691505092915050565b6000620004d48383620004a6565b9150826002028217905092915050565b620004ef826200026a565b67ffffffffffffffff8111156200050b576200050a62000275565b5b620005178254620002d3565b6200052482828562000449565b600060209050601f8311600181146200055c576000841562000547578287015190505b620005538582620004c6565b865550620005c3565b601f1984166200056c8662000308565b60005b8281101562000596578489015182556001820191506020850194506020810190506200056f565b86831015620005b65784890151620005b2601f891682620004a6565b8355505b6001600288020188555050505b505050505050565b6133cd80620005db6000396000f3fe608060405234801561001057600080fd5b50600436106101cf5760003560e01c80634f6ccce711610104578063b1cd778e116100a2578063d547741f11610071578063d547741f14610550578063e985e9c51461056c578063ed0c5f8f1461059c578063eeb40532146105cc576101cf565b8063b1cd778e146104ca578063b88d4fde146104e6578063c87b56dd14610502578063d539139314610532576101cf565b806391d14854116100de57806391d148541461044257806395d89b4114610472578063a217fddf14610490578063a22cb465146104ae576101cf565b80634f6ccce7146103b25780636352211e146103e257806370a0823114610412576101cf565b80632965d8091161017157806333f717fe1161014b57806333f717fe1461034057806336568abe1461035e57806340d097c31461037a57806342842e0e14610396576101cf565b80632965d809146102d85780632f2ff15d146102f45780632f745c5914610310576101cf565b8063095ea7b3116101ad578063095ea7b31461025257806318160ddd1461026e57806323b872dd1461028c578063248a9ca3146102a8576101cf565b806301ffc9a7146101d457806306fdde0314610204578063081812fc14610222575b600080fd5b6101ee60048036038101906101e9919061278b565b6105fc565b6040516101fb91906127d3565b60405180910390f35b61020c61060e565b604051610219919061287e565b60405180910390f35b61023c600480360381019061023791906128d6565b6106a0565b6040516102499190612944565b60405180910390f35b61026c6004803603810190610267919061298b565b6106bc565b005b6102766106d2565b60405161028391906129da565b60405180910390f35b6102a660048036038101906102a191906129f5565b6106df565b005b6102c260048036038101906102bd9190612a7e565b6107e1565b6040516102cf9190612aba565b60405180910390f35b6102f260048036038101906102ed9190612ad5565b610801565b005b61030e60048036038101906103099190612b15565b610986565b005b61032a6004803603810190610325919061298b565b6109a8565b60405161033791906129da565b60405180910390f35b610348610a51565b6040516103559190612c13565b60405180910390f35b61037860048036038101906103739190612b15565b610aa9565b005b610394600480360381019061038f9190612c35565b610b24565b005b6103b060048036038101906103ab91906129f5565b610b78565b005b6103cc60048036038101906103c791906128d6565b610b98565b6040516103d991906129da565b60405180910390f35b6103fc60048036038101906103f791906128d6565b610c0e565b6040516104099190612944565b60405180910390f35b61042c60048036038101906104279190612c35565b610c20565b60405161043991906129da565b60405180910390f35b61045c60048036038101906104579190612b15565b610cda565b60405161046991906127d3565b60405180910390f35b61047a610d45565b604051610487919061287e565b60405180910390f35b610498610dd7565b6040516104a59190612aba565b60405180910390f35b6104c860048036038101906104c39190612c8e565b610dde565b005b6104e460048036038101906104df9190612ad5565b610df4565b005b61050060048036038101906104fb9190612e03565b610f37565b005b61051c600480360381019061051791906128d6565b610f54565b604051610529919061287e565b60405180910390f35b61053a610fbd565b6040516105479190612aba565b60405180910390f35b61056a60048036038101906105659190612b15565b610fe1565b005b61058660048036038101906105819190612e86565b611003565b60405161059391906127d3565b60405180910390f35b6105b660048036038101906105b191906128d6565b611097565b6040516105c39190612aba565b60405180910390f35b6105e660048036038101906105e19190612ad5565b6110b4565b6040516105f391906127d3565b60405180910390f35b6000610607826110f0565b9050919050565b60606000805461061d90612ef5565b80601f016020809104026020016040519081016040528092919081815260200182805461064990612ef5565b80156106965780601f1061066b57610100808354040283529160200191610696565b820191906000526020600020905b81548152906001019060200180831161067957829003601f168201915b5050505050905090565b60006106ab8261116a565b506106b5826111f2565b9050919050565b6106ce82826106c961122f565b611237565b5050565b6000600880549050905090565b600073ffffffffffffffffffffffffffffffffffffffff168273ffffffffffffffffffffffffffffffffffffffff16036107515760006040517f64a0ae920000000000000000000000000000000000000000000000000000000081526004016107489190612944565b60405180910390fd5b6000610765838361076061122f565b611249565b90508373ffffffffffffffffffffffffffffffffffffffff168173ffffffffffffffffffffffffffffffffffffffff16146107db578382826040517f64283d7b0000000000000000000000000000000000000000000000000000000081526004016107d293929190612f26565b60405180910390fd5b50505050565b6000600a6000838152602001908152602001600020600101549050919050565b61085b600c80548060200260200160405190810160405280929190818152602001828054801561085057602002820191906000526020600020905b81548152602001906001019080831161083c575b50505050508361125f565b61089a576040517f08c379a000000000000000000000000000000000000000000000000000000000815260040161089190612fa9565b60405180910390fd5b600e6000838152602001908152602001600020600082815260200190815260200160002060009054906101000a900460ff161561090c576040517f08c379a000000000000000000000000000000000000000000000000000000000815260040161090390613015565b60405180910390fd5b6001600e6000848152602001908152602001600020600083815260200190815260200160002060006101000a81548160ff0219169083151502179055507fabac9f10ee0cc87d5cf3f8510d8405d69ace5b00f9245c1bc185e43f0d43ebd7828260405161097a929190613035565b60405180910390a15050565b61098f826107e1565b610998816112ba565b6109a283836112ce565b50505050565b60006109b383610c20565b82106109f85782826040517fa57d13dc0000000000000000000000000000000000000000000000000000000081526004016109ef92919061305e565b60405180910390fd5b600660008473ffffffffffffffffffffffffffffffffffffffff1673ffffffffffffffffffffffffffffffffffffffff168152602001908152602001600020600083815260200190815260200160002054905092915050565b6060600c805480602002602001604051908101604052809291908181526020018280548015610a9f57602002820191906000526020600020905b815481526020019060010190808311610a8b575b5050505050905090565b610ab161122f565b73ffffffffffffffffffffffffffffffffffffffff168173ffffffffffffffffffffffffffffffffffffffff1614610b15576040517f6697b23200000000000000000000000000000000000000000000000000000000815260040160405180910390fd5b610b1f82826113c0565b505050565b7f9f2df0fed2c77648de5860a4cc508cd0818c85b8b8a1ab4ceeef8d981c8956a6610b4e816112ba565b6000600b6000815480929190610b63906130b6565b919050559050610b7383826114b3565b505050565b610b9383838360405180602001604052806000815250610f37565b505050565b6000610ba26106d2565b8210610be8576000826040517fa57d13dc000000000000000000000000000000000000000000000000000000008152600401610bdf92919061305e565b60405180910390fd5b60088281548110610bfc57610bfb6130fe565b5b90600052602060002001549050919050565b6000610c198261116a565b9050919050565b60008073ffffffffffffffffffffffffffffffffffffffff168273ffffffffffffffffffffffffffffffffffffffff1603610c935760006040517f89c62b64000000000000000000000000000000000000000000000000000000008152600401610c8a9190612944565b60405180910390fd5b600360008373ffffffffffffffffffffffffffffffffffffffff1673ffffffffffffffffffffffffffffffffffffffff168152602001908152602001600020549050919050565b6000600a600084815260200190815260200160002060000160008373ffffffffffffffffffffffffffffffffffffffff1673ffffffffffffffffffffffffffffffffffffffff16815260200190815260200160002060009054906101000a900460ff16905092915050565b606060018054610d5490612ef5565b80601f0160208091040260200160405190810160405280929190818152602001828054610d8090612ef5565b8015610dcd5780601f10610da257610100808354040283529160200191610dcd565b820191906000526020600020905b815481529060010190602001808311610db057829003601f168201915b5050505050905090565b6000801b81565b610df0610de961122f565b83836114d1565b5050565b7f9f2df0fed2c77648de5860a4cc508cd0818c85b8b8a1ab4ceeef8d981c8956a6610e1e816112ba565b610e78600c805480602002602001604051908101604052809291908181526020018280548015610e6d57602002820191906000526020600020905b815481526020019060010190808311610e59575b50505050508461125f565b15610eb8576040517f08c379a0000000000000000000000000000000000000000000000000000000008152600401610eaf90613179565b60405180910390fd5b600c83908060018154018082558091505060019003906000526020600020016000909190919091505581600d6000858152602001908152602001600020819055507f28d967bcded44bffdc325b75e12506eb1ce8a880b0d411e891d3a6a9ce6507628383604051610f2a929190613035565b60405180910390a1505050565b610f428484846106df565b610f4e84848484611640565b50505050565b6060610f5f8261116a565b506000610f6a6117f7565b90506000815111610f8a5760405180602001604052806000815250610fb5565b80610f948461180e565b604051602001610fa59291906131d5565b6040516020818303038152906040525b915050919050565b7f9f2df0fed2c77648de5860a4cc508cd0818c85b8b8a1ab4ceeef8d981c8956a681565b610fea826107e1565b610ff3816112ba565b610ffd83836113c0565b50505050565b6000600560008473ffffffffffffffffffffffffffffffffffffffff1673ffffffffffffffffffffffffffffffffffffffff16815260200190815260200160002060008373ffffffffffffffffffffffffffffffffffffffff1673ffffffffffffffffffffffffffffffffffffffff16815260200190815260200160002060009054906101000a900460ff16905092915050565b6000600d6000838152602001908152602001600020549050919050565b6000600e6000848152602001908152602001600020600083815260200190815260200160002060009054906101000a900460ff16905092915050565b60007f7965db0b000000000000000000000000000000000000000000000000000000007bffffffffffffffffffffffffffffffffffffffffffffffffffffffff1916827bffffffffffffffffffffffffffffffffffffffffffffffffffffffff191614806111635750611162826118dc565b5b9050919050565b60008061117683611956565b9050600073ffffffffffffffffffffffffffffffffffffffff168173ffffffffffffffffffffffffffffffffffffffff16036111e957826040517f7e2732890000000000000000000000000000000000000000000000000000000081526004016111e091906129da565b60405180910390fd5b80915050919050565b60006004600083815260200190815260200160002060009054906101000a900473ffffffffffffffffffffffffffffffffffffffff169050919050565b600033905090565b6112448383836001611993565b505050565b6000611256848484611b58565b90509392505050565b600080600090505b83518110156112ae5782848281518110611284576112836130fe565b5b60200260200101510361129b5760019150506112b4565b80806112a6906130b6565b915050611267565b50600090505b92915050565b6112cb816112c661122f565b611c75565b50565b60006112da8383610cda565b6113b5576001600a600085815260200190815260200160002060000160008473ffffffffffffffffffffffffffffffffffffffff1673ffffffffffffffffffffffffffffffffffffffff16815260200190815260200160002060006101000a81548160ff02191690831515021790555061135261122f565b73ffffffffffffffffffffffffffffffffffffffff168273ffffffffffffffffffffffffffffffffffffffff16847f2f8788117e7eff1d82e926ec794901d17c78024a50270940304540a733656f0d60405160405180910390a4600190506113ba565b600090505b92915050565b60006113cc8383610cda565b156114a8576000600a600085815260200190815260200160002060000160008473ffffffffffffffffffffffffffffffffffffffff1673ffffffffffffffffffffffffffffffffffffffff16815260200190815260200160002060006101000a81548160ff02191690831515021790555061144561122f565b73ffffffffffffffffffffffffffffffffffffffff168273ffffffffffffffffffffffffffffffffffffffff16847ff6391f5c32d9c69d2a47ea670b442974b53935d1edc7fd64eb21e047a839171b60405160405180910390a4600190506114ad565b600090505b92915050565b6114cd828260405180602001604052806000815250611cc6565b5050565b600073ffffffffffffffffffffffffffffffffffffffff168273ffffffffffffffffffffffffffffffffffffffff160361154257816040517f5b08ba180000000000000000000000000000000000000000000000000000000081526004016115399190612944565b60405180910390fd5b80600560008573ffffffffffffffffffffffffffffffffffffffff1673ffffffffffffffffffffffffffffffffffffffff16815260200190815260200160002060008473ffffffffffffffffffffffffffffffffffffffff1673ffffffffffffffffffffffffffffffffffffffff16815260200190815260200160002060006101000a81548160ff0219169083151502179055508173ffffffffffffffffffffffffffffffffffffffff168373ffffffffffffffffffffffffffffffffffffffff167f17307eab39ab6107e8899845ad3d59bd9653f200f220920489ca2b5937696c318360405161163391906127d3565b60405180910390a3505050565b60008373ffffffffffffffffffffffffffffffffffffffff163b11156117f1578273ffffffffffffffffffffffffffffffffffffffff1663150b7a0261168461122f565b8685856040518563ffffffff1660e01b81526004016116a6949392919061324e565b6020604051808303816000875af19250505080156116e257506040513d601f19601f820116820180604052508101906116df91906132af565b60015b611766573d8060008114611712576040519150601f19603f3d011682016040523d82523d6000602084013e611717565b606091505b50600081510361175e57836040517f64a0ae920000000000000000000000000000000000000000000000000000000081526004016117559190612944565b60405180910390fd5b805181602001fd5b63150b7a0260e01b7bffffffffffffffffffffffffffffffffffffffffffffffffffffffff1916817bffffffffffffffffffffffffffffffffffffffffffffffffffffffff1916146117ef57836040517f64a0ae920000000000000000000000000000000000000000000000000000000081526004016117e69190612944565b60405180910390fd5b505b50505050565b606060405180602001604052806000815250905090565b60606000600161181d84611ce2565b01905060008167ffffffffffffffff81111561183c5761183b612cd8565b5b6040519080825280601f01601f19166020018201604052801561186e5781602001600182028036833780820191505090505b509050600082602001820190505b6001156118d1578080600190039150507f3031323334353637383961626364656600000000000000000000000000000000600a86061a8153600a85816118c5576118c46132dc565b5b0494506000850361187c575b819350505050919050565b60007f780e9d63000000000000000000000000000000000000000000000000000000007bffffffffffffffffffffffffffffffffffffffffffffffffffffffff1916827bffffffffffffffffffffffffffffffffffffffffffffffffffffffff1916148061194f575061194e82611e35565b5b9050919050565b60006002600083815260200190815260200160002060009054906101000a900473ffffffffffffffffffffffffffffffffffffffff169050919050565b80806119cc5750600073ffffffffffffffffffffffffffffffffffffffff168273ffffffffffffffffffffffffffffffffffffffff1614155b15611b005760006119dc8461116a565b9050600073ffffffffffffffffffffffffffffffffffffffff168373ffffffffffffffffffffffffffffffffffffffff1614158015611a4757508273ffffffffffffffffffffffffffffffffffffffff168173ffffffffffffffffffffffffffffffffffffffff1614155b8015611a5a5750611a588184611003565b155b15611a9c57826040517fa9fbf51f000000000000000000000000000000000000000000000000000000008152600401611a939190612944565b60405180910390fd5b8115611afe57838573ffffffffffffffffffffffffffffffffffffffff168273ffffffffffffffffffffffffffffffffffffffff167f8c5be1e5ebec7d5bd14f71427d1e84f3dd0314c0f7b2291e5b200ac8c7c3b92560405160405180910390a45b505b836004600085815260200190815260200160002060006101000a81548173ffffffffffffffffffffffffffffffffffffffff021916908373ffffffffffffffffffffffffffffffffffffffff16021790555050505050565b600080611b66858585611f17565b9050600073ffffffffffffffffffffffffffffffffffffffff168173ffffffffffffffffffffffffffffffffffffffff1603611baa57611ba584612131565b611be9565b8473ffffffffffffffffffffffffffffffffffffffff168173ffffffffffffffffffffffffffffffffffffffff1614611be857611be7818561217a565b5b5b600073ffffffffffffffffffffffffffffffffffffffff168573ffffffffffffffffffffffffffffffffffffffff1603611c2b57611c26846122db565b611c6a565b8473ffffffffffffffffffffffffffffffffffffffff168173ffffffffffffffffffffffffffffffffffffffff1614611c6957611c6885856123ac565b5b5b809150509392505050565b611c7f8282610cda565b611cc25780826040517fe2517d3f000000000000000000000000000000000000000000000000000000008152600401611cb992919061330b565b60405180910390fd5b5050565b611cd08383612437565b611cdd6000848484611640565b505050565b600080600090507a184f03e93ff9f4daa797ed6e38ed64bf6a1f0100000000000000008310611d40577a184f03e93ff9f4daa797ed6e38ed64bf6a1f0100000000000000008381611d3657611d356132dc565b5b0492506040810190505b6d04ee2d6d415b85acef81000000008310611d7d576d04ee2d6d415b85acef81000000008381611d7357611d726132dc565b5b0492506020810190505b662386f26fc100008310611dac57662386f26fc100008381611da257611da16132dc565b5b0492506010810190505b6305f5e1008310611dd5576305f5e1008381611dcb57611dca6132dc565b5b0492506008810190505b6127108310611dfa576127108381611df057611def6132dc565b5b0492506004810190505b60648310611e1d5760648381611e1357611e126132dc565b5b0492506002810190505b600a8310611e2c576001810190505b80915050919050565b60007f80ac58cd000000000000000000000000000000000000000000000000000000007bffffffffffffffffffffffffffffffffffffffffffffffffffffffff1916827bffffffffffffffffffffffffffffffffffffffffffffffffffffffff19161480611f0057507f5b5e139f000000000000000000000000000000000000000000000000000000007bffffffffffffffffffffffffffffffffffffffffffffffffffffffff1916827bffffffffffffffffffffffffffffffffffffffffffffffffffffffff1916145b80611f105750611f0f82612530565b5b9050919050565b600080611f2384611956565b9050600073ffffffffffffffffffffffffffffffffffffffff168373ffffffffffffffffffffffffffffffffffffffff1614611f6557611f6481848661259a565b5b600073ffffffffffffffffffffffffffffffffffffffff168173ffffffffffffffffffffffffffffffffffffffff1614611ff657611fa7600085600080611993565b6001600360008373ffffffffffffffffffffffffffffffffffffffff1673ffffffffffffffffffffffffffffffffffffffff168152602001908152602001600020600082825403925050819055505b600073ffffffffffffffffffffffffffffffffffffffff168573ffffffffffffffffffffffffffffffffffffffff1614612079576001600360008773ffffffffffffffffffffffffffffffffffffffff1673ffffffffffffffffffffffffffffffffffffffff168152602001908152602001600020600082825401925050819055505b846002600086815260200190815260200160002060006101000a81548173ffffffffffffffffffffffffffffffffffffffff021916908373ffffffffffffffffffffffffffffffffffffffff160217905550838573ffffffffffffffffffffffffffffffffffffffff168273ffffffffffffffffffffffffffffffffffffffff167fddf252ad1be2c89b69c2b068fc378daa952ba7f163c4a11628f55a4df523b3ef60405160405180910390a4809150509392505050565b6008805490506009600083815260200190815260200160002081905550600881908060018154018082558091505060019003906000526020600020016000909190919091505550565b600061218583610c20565b905060006007600084815260200190815260200160002054905081811461226a576000600660008673ffffffffffffffffffffffffffffffffffffffff1673ffffffffffffffffffffffffffffffffffffffff168152602001908152602001600020600084815260200190815260200160002054905080600660008773ffffffffffffffffffffffffffffffffffffffff1673ffffffffffffffffffffffffffffffffffffffff168152602001908152602001600020600084815260200190815260200160002081905550816007600083815260200190815260200160002081905550505b6007600084815260200190815260200160002060009055600660008573ffffffffffffffffffffffffffffffffffffffff1673ffffffffffffffffffffffffffffffffffffffff16815260200190815260200160002060008381526020019081526020016000206000905550505050565b600060016008805490506122ef9190613334565b905060006009600084815260200190815260200160002054905060006008838154811061231f5761231e6130fe565b5b906000526020600020015490508060088381548110612341576123406130fe565b5b9060005260206000200181905550816009600083815260200190815260200160002081905550600960008581526020019081526020016000206000905560088054806123905761238f613368565b5b6001900381819060005260206000200160009055905550505050565b600060016123b984610c20565b6123c39190613334565b905081600660008573ffffffffffffffffffffffffffffffffffffffff1673ffffffffffffffffffffffffffffffffffffffff168152602001908152602001600020600083815260200190815260200160002081905550806007600084815260200190815260200160002081905550505050565b600073ffffffffffffffffffffffffffffffffffffffff168273ffffffffffffffffffffffffffffffffffffffff16036124a95760006040517f64a0ae920000000000000000000000000000000000000000000000000000000081526004016124a09190612944565b60405180910390fd5b60006124b783836000611249565b9050600073ffffffffffffffffffffffffffffffffffffffff168173ffffffffffffffffffffffffffffffffffffffff161461252b5760006040517f73c6ac6e0000000000000000000000000000000000000000000000000000000081526004016125229190612944565b60405180910390fd5b505050565b60007f01ffc9a7000000000000000000000000000000000000000000000000000000007bffffffffffffffffffffffffffffffffffffffffffffffffffffffff1916827bffffffffffffffffffffffffffffffffffffffffffffffffffffffff1916149050919050565b6125a583838361265e565b61265957600073ffffffffffffffffffffffffffffffffffffffff168373ffffffffffffffffffffffffffffffffffffffff160361261a57806040517f7e27328900000000000000000000000000000000000000000000000000000000815260040161261191906129da565b60405180910390fd5b81816040517f177e802f00000000000000000000000000000000000000000000000000000000815260040161265092919061305e565b60405180910390fd5b505050565b60008073ffffffffffffffffffffffffffffffffffffffff168373ffffffffffffffffffffffffffffffffffffffff161415801561271657508273ffffffffffffffffffffffffffffffffffffffff168473ffffffffffffffffffffffffffffffffffffffff1614806126d757506126d68484611003565b5b8061271557508273ffffffffffffffffffffffffffffffffffffffff166126fd836111f2565b73ffffffffffffffffffffffffffffffffffffffff16145b5b90509392505050565b6000604051905090565b600080fd5b600080fd5b60007fffffffff0000000000000000000000000000000000000000000000000000000082169050919050565b61276881612733565b811461277357600080fd5b50565b6000813590506127858161275f565b92915050565b6000602082840312156127a1576127a0612729565b5b60006127af84828501612776565b91505092915050565b60008115159050919050565b6127cd816127b8565b82525050565b60006020820190506127e860008301846127c4565b92915050565b600081519050919050565b600082825260208201905092915050565b60005b8381101561282857808201518184015260208101905061280d565b60008484015250505050565b6000601f19601f8301169050919050565b6000612850826127ee565b61285a81856127f9565b935061286a81856020860161280a565b61287381612834565b840191505092915050565b600060208201905081810360008301526128988184612845565b905092915050565b6000819050919050565b6128b3816128a0565b81146128be57600080fd5b50565b6000813590506128d0816128aa565b92915050565b6000602082840312156128ec576128eb612729565b5b60006128fa848285016128c1565b91505092915050565b600073ffffffffffffffffffffffffffffffffffffffff82169050919050565b600061292e82612903565b9050919050565b61293e81612923565b82525050565b60006020820190506129596000830184612935565b92915050565b61296881612923565b811461297357600080fd5b50565b6000813590506129858161295f565b92915050565b600080604083850312156129a2576129a1612729565b5b60006129b085828601612976565b92505060206129c1858286016128c1565b9150509250929050565b6129d4816128a0565b82525050565b60006020820190506129ef60008301846129cb565b92915050565b600080600060608486031215612a0e57612a0d612729565b5b6000612a1c86828701612976565b9350506020612a2d86828701612976565b9250506040612a3e868287016128c1565b9150509250925092565b6000819050919050565b612a5b81612a48565b8114612a6657600080fd5b50565b600081359050612a7881612a52565b92915050565b600060208284031215612a9457612a93612729565b5b6000612aa284828501612a69565b91505092915050565b612ab481612a48565b82525050565b6000602082019050612acf6000830184612aab565b92915050565b60008060408385031215612aec57612aeb612729565b5b6000612afa858286016128c1565b9250506020612b0b85828601612a69565b9150509250929050565b60008060408385031215612b2c57612b2b612729565b5b6000612b3a85828601612a69565b9250506020612b4b85828601612976565b9150509250929050565b600081519050919050565b600082825260208201905092915050565b6000819050602082019050919050565b612b8a816128a0565b82525050565b6000612b9c8383612b81565b60208301905092915050565b6000602082019050919050565b6000612bc082612b55565b612bca8185612b60565b9350612bd583612b71565b8060005b83811015612c06578151612bed8882612b90565b9750612bf883612ba8565b925050600181019050612bd9565b5085935050505092915050565b60006020820190508181036000830152612c2d8184612bb5565b905092915050565b600060208284031215612c4b57612c4a612729565b5b6000612c5984828501612976565b91505092915050565b612c6b816127b8565b8114612c7657600080fd5b50565b600081359050612c8881612c62565b92915050565b60008060408385031215612ca557612ca4612729565b5b6000612cb385828601612976565b9250506020612cc485828601612c79565b9150509250929050565b600080fd5b600080fd5b7f4e487b7100000000000000000000000000000000000000000000000000000000600052604160045260246000fd5b612d1082612834565b810181811067ffffffffffffffff82111715612d2f57612d2e612cd8565b5b80604052505050565b6000612d4261271f565b9050612d4e8282612d07565b919050565b600067ffffffffffffffff821115612d6e57612d6d612cd8565b5b612d7782612834565b9050602081019050919050565b82818337600083830152505050565b6000612da6612da184612d53565b612d38565b905082815260208101848484011115612dc257612dc1612cd3565b5b612dcd848285612d84565b509392505050565b600082601f830112612dea57612de9612cce565b5b8135612dfa848260208601612d93565b91505092915050565b60008060008060808587031215612e1d57612e1c612729565b5b6000612e2b87828801612976565b9450506020612e3c87828801612976565b9350506040612e4d878288016128c1565b925050606085013567ffffffffffffffff811115612e6e57612e6d61272e565b5b612e7a87828801612dd5565b91505092959194509250565b60008060408385031215612e9d57612e9c612729565b5b6000612eab85828601612976565b9250506020612ebc85828601612976565b9150509250929050565b7f4e487b7100000000000000000000000000000000000000000000000000000000600052602260045260246000fd5b60006002820490506001821680612f0d57607f821691505b602082108103612f2057612f1f612ec6565b5b50919050565b6000606082019050612f3b6000830186612935565b612f4860208301856129cb565b612f556040830184612935565b949350505050565b7f496e76616c696420617070204944000000000000000000000000000000000000600082015250565b6000612f93600e836127f9565b9150612f9e82612f5d565b602082019050919050565b60006020820190508181036000830152612fc281612f86565b9050919050565b7f557365726e616d6520616c726561647920726567697374657265640000000000600082015250565b6000612fff601b836127f9565b915061300a82612fc9565b602082019050919050565b6000602082019050818103600083015261302e81612ff2565b9050919050565b600060408201905061304a60008301856129cb565b6130576020830184612aab565b9392505050565b60006040820190506130736000830185612935565b61308060208301846129cb565b9392505050565b7f4e487b7100000000000000000000000000000000000000000000000000000000600052601160045260246000fd5b60006130c1826128a0565b91507fffffffffffffffffffffffffffffffffffffffffffffffffffffffffffffffff82036130f3576130f2613087565b5b600182019050919050565b7f4e487b7100000000000000000000000000000000000000000000000000000000600052603260045260246000fd5b7f41707020494420616c7265616479206578697374730000000000000000000000600082015250565b60006131636015836127f9565b915061316e8261312d565b602082019050919050565b6000602082019050818103600083015261319281613156565b9050919050565b600081905092915050565b60006131af826127ee565b6131b98185613199565b93506131c981856020860161280a565b80840191505092915050565b60006131e182856131a4565b91506131ed82846131a4565b91508190509392505050565b600081519050919050565b600082825260208201905092915050565b6000613220826131f9565b61322a8185613204565b935061323a81856020860161280a565b61324381612834565b840191505092915050565b60006080820190506132636000830187612935565b6132706020830186612935565b61327d60408301856129cb565b818103606083015261328f8184613215565b905095945050505050565b6000815190506132a98161275f565b92915050565b6000602082840312156132c5576132c4612729565b5b60006132d38482850161329a565b91505092915050565b7f4e487b7100000000000000000000000000000000000000000000000000000000600052601260045260246000fd5b60006040820190506133206000830185612935565b61332d6020830184612aab565b9392505050565b600061333f826128a0565b915061334a836128a0565b925082820390508181111561336257613361613087565b5b92915050565b7f4e487b7100000000000000000000000000000000000000000000000000000000600052603160045260246000fdfea2646970667358221220652c2dd196fa4ca1b7f10a92a211debab0ea6d17d0a97dd5a7de6ae6a3d1538564736f6c63430008140033",
  "linkReferences": {},
  "deployedLinkReferences": {}
}