{
  "_format": "hh-sol-artifact-1",
  "contractName": "Mfa",
  "sourceName": "contracts/Mfa.sol",
  "abi": [
    {
      "inputs": [],
      "stateMutability": "nonpayable",
      "type": "constructor"
    },
    {
      "inputs": [],
      "name": "AccessControlBadConfirmation",
      "type": "error"
    },
    {
      "inputs": [
        {
          "internalType": "address",
          "name": "account",
          "type": "address"
        },
        {
          "internalType": "bytes32",
          "name": "neededRole",
          "type": "bytes32"
        }
      ],
      "name": "AccessControlUnauthorizedAccount",
      "type": "error"
    },
    {
      "inputs": [],
      "name": "ERC721EnumerableForbiddenBatchMint",
      "type": "error"
    },
    {
      "inputs": [
        {
          "internalType": "address",
          "name": "sender",
          "type": "address"
        },
        {
          "internalType": "uint256",
          "name": "tokenId",
          "type": "uint256"
        },
        {
          "internalType": "address",
          "name": "owner",
          "type": "address"
        }
      ],
      "name": "ERC721IncorrectOwner",
      "type": "error"
    },
    {
      "inputs": [
        {
          "internalType": "address",
          "name": "operator",
          "type": "address"
        },
        {
          "internalType": "uint256",
          "name": "tokenId",
          "type": "uint256"
        }
      ],
      "name": "ERC721InsufficientApproval",
      "type": "error"
    },
    {
      "inputs": [
        {
          "internalType": "address",
          "name": "approver",
          "type": "address"
        }
      ],
      "name": "ERC721InvalidApprover",
      "type": "error"
    },
    {
      "inputs": [
        {
          "internalType": "address",
          "name": "operator",
          "type": "address"
        }
      ],
      "name": "ERC721InvalidOperator",
      "type": "error"
    },
    {
      "inputs": [
        {
          "internalType": "address",
          "name": "owner",
          "type": "address"
        }
      ],
      "name": "ERC721InvalidOwner",
      "type": "error"
    },
    {
      "inputs": [
        {
          "internalType": "address",
          "name": "receiver",
          "type": "address"
        }
      ],
      "name": "ERC721InvalidReceiver",
      "type": "error"
    },
    {
      "inputs": [
        {
          "internalType": "address",
          "name": "sender",
          "type": "address"
        }
      ],
      "name": "ERC721InvalidSender",
      "type": "error"
    },
    {
      "inputs": [
        {
          "internalType": "uint256",
          "name": "tokenId",
          "type": "uint256"
        }
      ],
      "name": "ERC721NonexistentToken",
      "type": "error"
    },
    {
      "inputs": [
        {
          "internalType": "address",
          "name": "owner",
          "type": "address"
        },
        {
          "internalType": "uint256",
          "name": "index",
          "type": "uint256"
        }
      ],
      "name": "ERC721OutOfBoundsIndex",
      "type": "error"
    },
    {
      "anonymous": false,
      "inputs": [
        {
          "indexed": false,
          "internalType": "uint256",
          "name": "appId",
          "type": "uint256"
        },
        {
          "indexed": false,
          "internalType": "bytes32",
          "name": "appName",
          "type": "bytes32"
        }
      ],
      "name": "AppAdded",
      "type": "event"
    },
    {
      "anonymous": false,
      "inputs": [
        {
          "indexed": true,
          "internalType": "address",
          "name": "owner",
          "type": "address"
        },
        {
          "indexed": true,
          "internalType": "address",
          "name": "approved",
          "type": "address"
        },
        {
          "indexed": true,
          "internalType": "uint256",
          "name": "tokenId",
          "type": "uint256"
        }
      ],
      "name": "Approval",
      "type": "event"
    },
    {
      "anonymous": false,
      "inputs": [
        {
          "indexed": true,
          "internalType": "address",
          "name": "owner",
          "type": "address"
        },
        {
          "indexed": true,
          "internalType": "address",
          "name": "operator",
          "type": "address"
        },
        {
          "indexed": false,
          "internalType": "bool",
          "name": "approved",
          "type": "bool"
        }
      ],
      "name": "ApprovalForAll",
      "type": "event"
    },
    {
      "anonymous": false,
      "inputs": [
        {
          "indexed": true,
          "internalType": "bytes32",
          "name": "role",
          "type": "bytes32"
        },
        {
          "indexed": true,
          "internalType": "bytes32",
          "name": "previousAdminRole",
          "type": "bytes32"
        },
        {
          "indexed": true,
          "internalType": "bytes32",
          "name": "newAdminRole",
          "type": "bytes32"
        }
      ],
      "name": "RoleAdminChanged",
      "type": "event"
    },
    {
      "anonymous": false,
      "inputs": [
        {
          "indexed": true,
          "internalType": "bytes32",
          "name": "role",
          "type": "bytes32"
        },
        {
          "indexed": true,
          "internalType": "address",
          "name": "account",
          "type": "address"
        },
        {
          "indexed": true,
          "internalType": "address",
          "name": "sender",
          "type": "address"
        }
      ],
      "name": "RoleGranted",
      "type": "event"
    },
    {
      "anonymous": false,
      "inputs": [
        {
          "indexed": true,
          "internalType": "bytes32",
          "name": "role",
          "type": "bytes32"
        },
        {
          "indexed": true,
          "internalType": "address",
          "name": "account",
          "type": "address"
        },
        {
          "indexed": true,
          "internalType": "address",
          "name": "sender",
          "type": "address"
        }
      ],
      "name": "RoleRevoked",
      "type": "event"
    },
    {
      "anonymous": false,
      "inputs": [
        {
          "indexed": true,
          "internalType": "address",
          "name": "from",
          "type": "address"
        },
        {
          "indexed": true,
          "internalType": "address",
          "name": "to",
          "type": "address"
        },
        {
          "indexed": true,
          "internalType": "uint256",
          "name": "tokenId",
          "type": "uint256"
        }
      ],
      "name": "Transfer",
      "type": "event"
    },
    {
      "inputs": [],
      "name": "DEFAULT_ADMIN_ROLE",
      "outputs": [
        {
          "internalType": "bytes32",
          "name": "",
          "type": "bytes32"
        }
      ],
      "stateMutability": "view",
      "type": "function"
    },
    {
      "inputs": [],
      "name": "MINTER_ROLE",
      "outputs": [
        {
          "internalType": "bytes32",
          "name": "",
          "type": "bytes32"
        }
      ],
      "stateMutability": "view",
      "type": "function"
    },
    {
      "inputs": [
        {
          "internalType": "uint256",
          "name": "newAppId",
          "type": "uint256"
        },
        {
          "internalType": "bytes32",
          "name": "appName",
          "type": "bytes32"
        }
      ],
      "name": "addApp",
      "outputs": [],
      "stateMutability": "nonpayable",
      "type": "function"
    },
    {
      "inputs": [
        {
          "internalType": "address",
          "name": "to",
          "type": "address"
        },
        {
          "internalType": "uint256",
          "name": "tokenId",
          "type": "uint256"
        }
      ],
      "name": "approve",
      "outputs": [],
      "stateMutability": "nonpayable",
      "type": "function"
    },
    {
      "inputs": [
        {
          "internalType": "address",
          "name": "owner",
          "type": "address"
        }
      ],
      "name": "balanceOf",
      "outputs": [
        {
          "internalType": "uint256",
          "name": "",
          "type": "uint256"
        }
      ],
      "stateMutability": "view",
      "type": "function"
    },
    {
      "inputs": [],
      "name": "getAppIds",
      "outputs": [
        {
          "internalType": "uint256[]",
          "name": "",
          "type": "uint256[]"
        }
      ],
      "stateMutability": "view",
      "type": "function"
    },
    {
      "inputs": [
        {
          "internalType": "uint256",
          "name": "appId",
          "type": "uint256"
        }
      ],
      "name": "getAppName",
      "outputs": [
        {
          "internalType": "bytes32",
          "name": "",
          "type": "bytes32"
        }
      ],
      "stateMutability": "view",
      "type": "function"
    },
    {
      "inputs": [
        {
          "internalType": "uint256",
          "name": "tokenId",
          "type": "uint256"
        }
      ],
      "name": "getApproved",
      "outputs": [
        {
          "internalType": "address",
          "name": "",
          "type": "address"
        }
      ],
      "stateMutability": "view",
      "type": "function"
    },
    {
      "inputs": [
        {
          "internalType": "bytes32",
          "name": "role",
          "type": "bytes32"
        }
      ],
      "name": "getRoleAdmin",
      "outputs": [
        {
          "internalType": "bytes32",
          "name": "",
          "type": "bytes32"
        }
      ],
      "stateMutability": "view",
      "type": "function"
    },
    {
      "inputs": [
        {
          "internalType": "bytes32",
          "name": "role",
          "type": "bytes32"
        },
        {
          "internalType": "address",
          "name": "account",
          "type": "address"
        }
      ],
      "name": "grantRole",
      "outputs": [],
      "stateMutability": "nonpayable",
      "type": "function"
    },
    {
      "inputs": [
        {
          "internalType": "bytes32",
          "name": "role",
          "type": "bytes32"
        },
        {
          "internalType": "address",
          "name": "account",
          "type": "address"
        }
      ],
      "name": "hasRole",
      "outputs": [
        {
          "internalType": "bool",
          "name": "",
          "type": "bool"
        }
      ],
      "stateMutability": "view",
      "type": "function"
    },
    {
      "inputs": [
        {
          "internalType": "address",
          "name": "owner",
          "type": "address"
        },
        {
          "internalType": "address",
          "name": "operator",
          "type": "address"
        }
      ],
      "name": "isApprovedForAll",
      "outputs": [
        {
          "internalType": "bool",
          "name": "",
          "type": "bool"
        }
      ],
      "stateMutability": "view",
      "type": "function"
    },
    {
      "inputs": [
        {
          "internalType": "uint256",
          "name": "appId",
          "type": "uint256"
        },
        {
          "internalType": "bytes32",
          "name": "username",
          "type": "bytes32"
        }
      ],
      "name": "isRegistered",
      "outputs": [
        {
          "internalType": "bool",
          "name": "",
          "type": "bool"
        }
      ],
      "stateMutability": "view",
      "type": "function"
    },
    {
      "inputs": [],
      "name": "name",
      "outputs": [
        {
          "internalType": "string",
          "name": "",
          "type": "string"
        }
      ],
      "stateMutability": "view",
      "type": "function"
    },
    {
      "inputs": [
        {
          "internalType": "uint256",
          "name": "tokenId",
          "type": "uint256"
        }
      ],
      "name": "ownerOf",
      "outputs": [
        {
          "internalType": "address",
          "name": "",
          "type": "address"
        }
      ],
      "stateMutability": "view",
      "type": "function"
    },
    {
      "inputs": [
        {
          "internalType": "uint256",
          "name": "appId",
          "type": "uint256"
        },
        {
          "internalType": "bytes32",
          "name": "username",
          "type": "bytes32"
        }
      ],
      "name": "register",
      "outputs": [],
      "stateMutability": "nonpayable",
      "type": "function"
    },
    {
      "inputs": [
        {
          "internalType": "bytes32",
          "name": "role",
          "type": "bytes32"
        },
        {
          "internalType": "address",
          "name": "callerConfirmation",
          "type": "address"
        }
      ],
      "name": "renounceRole",
      "outputs": [],
      "stateMutability": "nonpayable",
      "type": "function"
    },
    {
      "inputs": [
        {
          "internalType": "bytes32",
          "name": "role",
          "type": "bytes32"
        },
        {
          "internalType": "address",
          "name": "account",
          "type": "address"
        }
      ],
      "name": "revokeRole",
      "outputs": [],
      "stateMutability": "nonpayable",
      "type": "function"
    },
    {
      "inputs": [
        {
          "internalType": "address",
          "name": "to",
          "type": "address"
        }
      ],
      "name": "safeMint",
      "outputs": [],
      "stateMutability": "nonpayable",
      "type": "function"
    },
    {
      "inputs": [
        {
          "internalType": "address",
          "name": "from",
          "type": "address"
        },
        {
          "internalType": "address",
          "name": "to",
          "type": "address"
        },
        {
          "internalType": "uint256",
          "name": "tokenId",
          "type": "uint256"
        }
      ],
      "name": "safeTransferFrom",
      "outputs": [],
      "stateMutability": "nonpayable",
      "type": "function"
    },
    {
      "inputs": [
        {
          "internalType": "address",
          "name": "from",
          "type": "address"
        },
        {
          "internalType": "address",
          "name": "to",
          "type": "address"
        },
        {
          "internalType": "uint256",
          "name": "tokenId",
          "type": "uint256"
        },
        {
          "internalType": "bytes",
          "name": "data",
          "type": "bytes"
        }
      ],
      "name": "safeTransferFrom",
      "outputs": [],
      "stateMutability": "nonpayable",
      "type": "function"
    },
    {
      "inputs": [
        {
          "internalType": "address",
          "name": "operator",
          "type": "address"
        },
        {
          "internalType": "bool",
          "name": "approved",
          "type": "bool"
        }
      ],
      "name": "setApprovalForAll",
      "outputs": [],
      "stateMutability": "nonpayable",
      "type": "function"
    },
    {
      "inputs": [
        {
          "internalType": "bytes4",
          "name": "interfaceId",
          "type": "bytes4"
        }
      ],
      "name": "supportsInterface",
      "outputs": [
        {
          "internalType": "bool",
          "name": "",
          "type": "bool"
        }
      ],
      "stateMutability": "view",
      "type": "function"
    },
    {
      "inputs": [],
      "name": "symbol",
      "outputs": [
        {
          "internalType": "string",
          "name": "",
          "type": "string"
        }
      ],
      "stateMutability": "view",
      "type": "function"
    },
    {
      "inputs": [
        {
          "internalType": "uint256",
          "name": "index",
          "type": "uint256"
        }
      ],
      "name": "tokenByIndex",
      "outputs": [
        {
          "internalType": "uint256",
          "name": "",
          "type": "uint256"
        }
      ],
      "stateMutability": "view",
      "type": "function"
    },
    {
      "inputs": [
        {
          "internalType": "address",
          "name": "owner",
          "type": "address"
        },
        {
          "internalType": "uint256",
          "name": "index",
          "type": "uint256"
        }
      ],
      "name": "tokenOfOwnerByIndex",
      "outputs": [
        {
          "internalType": "uint256",
          "name": "",
          "type": "uint256"
        }
      ],
      "stateMutability": "view",
      "type": "function"
    },
    {
      "inputs": [
        {
          "internalType": "uint256",
          "name": "tokenId",
          "type": "uint256"
        }
      ],
      "name": "tokenURI",
      "outputs": [
        {
          "internalType": "string",
          "name": "",
          "type": "string"
        }
      ],
      "stateMutability": "view",
      "type": "function"
    },
    {
      "inputs": [],
      "name": "totalSupply",
      "outputs": [
        {
          "internalType": "uint256",
          "name": "",
          "type": "uint256"
        }
      ],
      "stateMutability": "view",
      "type": "function"
    },
    {
      "inputs": [
        {
          "internalType": "address",
          "name": "from",
          "type": "address"
        },
        {
          "internalType": "address",
          "name": "to",
          "type": "address"
        },
        {
          "internalType": "uint256",
          "name": "tokenId",
          "type": "uint256"
        }
      ],
      "name": "transferFrom",
      "outputs": [],
      "stateMutability": "nonpayable",
      "type": "function"
    }
  ],
  "bytecode": "0x60806040523480156200001157600080fd5b506040518060400160405280600381526020017f4d666100000000000000000000000000000000000000000000000000000000008152506040518060400160405280600381526020017f4d4641000000000000000000000000000000000000000000000000000000000081525081600090816200008f9190620004e4565b508060019081620000a19190620004e4565b505050620000b96000801b33620000f360201b60201c565b50620000ec7f9f2df0fed2c77648de5860a4cc508cd0818c85b8b8a1ab4ceeef8d981c8956a633620000f360201b60201c565b50620005cb565b6000620001078383620001f760201b60201c565b620001ec576001600a600085815260200190815260200160002060000160008473ffffffffffffffffffffffffffffffffffffffff1673ffffffffffffffffffffffffffffffffffffffff16815260200190815260200160002060006101000a81548160ff021916908315150217905550620001886200026260201b60201c565b73ffffffffffffffffffffffffffffffffffffffff168273ffffffffffffffffffffffffffffffffffffffff16847f2f8788117e7eff1d82e926ec794901d17c78024a50270940304540a733656f0d60405160405180910390a460019050620001f1565b600090505b92915050565b6000600a600084815260200190815260200160002060000160008373ffffffffffffffffffffffffffffffffffffffff1673ffffffffffffffffffffffffffffffffffffffff16815260200190815260200160002060009054906101000a900460ff16905092915050565b600033905090565b600081519050919050565b7f4e487b7100000000000000000000000000000000000000000000000000000000600052604160045260246000fd5b7f4e487b7100000000000000000000000000000000000000000000000000000000600052602260045260246000fd5b60006002820490506001821680620002ec57607f821691505b602082108103620003025762000301620002a4565b5b50919050565b60008190508160005260206000209050919050565b60006020601f8301049050919050565b600082821b905092915050565b6000600883026200036c7fffffffffffffffffffffffffffffffffffffffffffffffffffffffffffffffff826200032d565b6200037886836200032d565b95508019841693508086168417925050509392505050565b6000819050919050565b6000819050919050565b6000620003c5620003bf620003b98462000390565b6200039a565b62000390565b9050919050565b6000819050919050565b620003e183620003a4565b620003f9620003f082620003cc565b8484546200033a565b825550505050565b600090565b6200041062000401565b6200041d818484620003d6565b505050565b5b8181101562000445576200043960008262000406565b60018101905062000423565b5050565b601f82111562000494576200045e8162000308565b62000469846200031d565b8101602085101562000479578190505b6200049162000488856200031d565b83018262000422565b50505b505050565b600082821c905092915050565b6000620004b96000198460080262000499565b1980831691505092915050565b6000620004d48383620004a6565b9150826002028217905092915050565b620004ef826200026a565b67ffffffffffffffff8111156200050b576200050a62000275565b5b620005178254620002d3565b6200052482828562000449565b600060209050601f8311600181146200055c576000841562000547578287015190505b620005538582620004c6565b865550620005c3565b601f1984166200056c8662000308565b60005b8281101562000596578489015182556001820191506020850194506020810190506200056f565b86831015620005b65784890151620005b2601f891682620004a6565b8355505b6001600288020188555050505b505050505050565b61339480620005db6000396000f3fe608060405234801561001057600080fd5b50600436106101cf5760003560e01c80634f6ccce711610104578063b1cd778e116100a2578063d547741f11610071578063d547741f14610550578063e985e9c51461056c578063ed0c5f8f1461059c578063eeb40532146105cc576101cf565b8063b1cd778e146104ca578063b88d4fde146104e6578063c87b56dd14610502578063d539139314610532576101cf565b806391d14854116100de57806391d148541461044257806395d89b4114610472578063a217fddf14610490578063a22cb465146104ae576101cf565b80634f6ccce7146103b25780636352211e146103e257806370a0823114610412576101cf565b80632965d8091161017157806333f717fe1161014b57806333f717fe1461034057806336568abe1461035e57806340d097c31461037a57806342842e0e14610396576101cf565b80632965d809146102d85780632f2ff15d146102f45780632f745c5914610310576101cf565b8063095ea7b3116101ad578063095ea7b31461025257806318160ddd1461026e57806323b872dd1461028c578063248a9ca3146102a8576101cf565b806301ffc9a7146101d457806306fdde0314610204578063081812fc14610222575b600080fd5b6101ee60048036038101906101e99190612752565b6105fc565b6040516101fb919061279a565b60405180910390f35b61020c61060e565b6040516102199190612845565b60405180910390f35b61023c6004803603810190610237919061289d565b6106a0565b604051610249919061290b565b60405180910390f35b61026c60048036038101906102679190612952565b6106bc565b005b6102766106d2565b60405161028391906129a1565b60405180910390f35b6102a660048036038101906102a191906129bc565b6106df565b005b6102c260048036038101906102bd9190612a45565b6107e1565b6040516102cf9190612a81565b60405180910390f35b6102f260048036038101906102ed9190612a9c565b610801565b005b61030e60048036038101906103099190612adc565b61094d565b005b61032a60048036038101906103259190612952565b61096f565b60405161033791906129a1565b60405180910390f35b610348610a18565b6040516103559190612bda565b60405180910390f35b61037860048036038101906103739190612adc565b610a70565b005b610394600480360381019061038f9190612bfc565b610aeb565b005b6103b060048036038101906103ab91906129bc565b610b3f565b005b6103cc60048036038101906103c7919061289d565b610b5f565b6040516103d991906129a1565b60405180910390f35b6103fc60048036038101906103f7919061289d565b610bd5565b604051610409919061290b565b60405180910390f35b61042c60048036038101906104279190612bfc565b610be7565b60405161043991906129a1565b60405180910390f35b61045c60048036038101906104579190612adc565b610ca1565b604051610469919061279a565b60405180910390f35b61047a610d0c565b6040516104879190612845565b60405180910390f35b610498610d9e565b6040516104a59190612a81565b60405180910390f35b6104c860048036038101906104c39190612c55565b610da5565b005b6104e460048036038101906104df9190612a9c565b610dbb565b005b61050060048036038101906104fb9190612dca565b610efe565b005b61051c6004803603810190610517919061289d565b610f1b565b6040516105299190612845565b60405180910390f35b61053a610f84565b6040516105479190612a81565b60405180910390f35b61056a60048036038101906105659190612adc565b610fa8565b005b61058660048036038101906105819190612e4d565b610fca565b604051610593919061279a565b60405180910390f35b6105b660048036038101906105b1919061289d565b61105e565b6040516105c39190612a81565b60405180910390f35b6105e660048036038101906105e19190612a9c565b61107b565b6040516105f3919061279a565b60405180910390f35b6000610607826110b7565b9050919050565b60606000805461061d90612ebc565b80601f016020809104026020016040519081016040528092919081815260200182805461064990612ebc565b80156106965780601f1061066b57610100808354040283529160200191610696565b820191906000526020600020905b81548152906001019060200180831161067957829003601f168201915b5050505050905090565b60006106ab82611131565b506106b5826111b9565b9050919050565b6106ce82826106c96111f6565b6111fe565b5050565b6000600880549050905090565b600073ffffffffffffffffffffffffffffffffffffffff168273ffffffffffffffffffffffffffffffffffffffff16036107515760006040517f64a0ae92000000000000000000000000000000000000000000000000000000008152600401610748919061290b565b60405180910390fd5b600061076583836107606111f6565b611210565b90508373ffffffffffffffffffffffffffffffffffffffff168173ffffffffffffffffffffffffffffffffffffffff16146107db578382826040517f64283d7b0000000000000000000000000000000000000000000000000000000081526004016107d293929190612eed565b60405180910390fd5b50505050565b6000600a6000838152602001908152602001600020600101549050919050565b61085b600c80548060200260200160405190810160405280929190818152602001828054801561085057602002820191906000526020600020905b81548152602001906001019080831161083c575b505050505083611226565b61089a576040517f08c379a000000000000000000000000000000000000000000000000000000000815260040161089190612f70565b60405180910390fd5b600e6000838152602001908152602001600020600082815260200190815260200160002060009054906101000a900460ff161561090c576040517f08c379a000000000000000000000000000000000000000000000000000000000815260040161090390612fdc565b60405180910390fd5b6001600e6000848152602001908152602001600020600083815260200190815260200160002060006101000a81548160ff0219169083151502179055505050565b610956826107e1565b61095f81611281565b6109698383611295565b50505050565b600061097a83610be7565b82106109bf5782826040517fa57d13dc0000000000000000000000000000000000000000000000000000000081526004016109b6929190612ffc565b60405180910390fd5b600660008473ffffffffffffffffffffffffffffffffffffffff1673ffffffffffffffffffffffffffffffffffffffff168152602001908152602001600020600083815260200190815260200160002054905092915050565b6060600c805480602002602001604051908101604052809291908181526020018280548015610a6657602002820191906000526020600020905b815481526020019060010190808311610a52575b5050505050905090565b610a786111f6565b73ffffffffffffffffffffffffffffffffffffffff168173ffffffffffffffffffffffffffffffffffffffff1614610adc576040517f6697b23200000000000000000000000000000000000000000000000000000000815260040160405180910390fd5b610ae68282611387565b505050565b7f9f2df0fed2c77648de5860a4cc508cd0818c85b8b8a1ab4ceeef8d981c8956a6610b1581611281565b6000600b6000815480929190610b2a90613054565b919050559050610b3a838261147a565b505050565b610b5a83838360405180602001604052806000815250610efe565b505050565b6000610b696106d2565b8210610baf576000826040517fa57d13dc000000000000000000000000000000000000000000000000000000008152600401610ba6929190612ffc565b60405180910390fd5b60088281548110610bc357610bc261309c565b5b90600052602060002001549050919050565b6000610be082611131565b9050919050565b60008073ffffffffffffffffffffffffffffffffffffffff168273ffffffffffffffffffffffffffffffffffffffff1603610c5a5760006040517f89c62b64000000000000000000000000000000000000000000000000000000008152600401610c51919061290b565b60405180910390fd5b600360008373ffffffffffffffffffffffffffffffffffffffff1673ffffffffffffffffffffffffffffffffffffffff168152602001908152602001600020549050919050565b6000600a600084815260200190815260200160002060000160008373ffffffffffffffffffffffffffffffffffffffff1673ffffffffffffffffffffffffffffffffffffffff16815260200190815260200160002060009054906101000a900460ff16905092915050565b606060018054610d1b90612ebc565b80601f0160208091040260200160405190810160405280929190818152602001828054610d4790612ebc565b8015610d945780601f10610d6957610100808354040283529160200191610d94565b820191906000526020600020905b815481529060010190602001808311610d7757829003601f168201915b5050505050905090565b6000801b81565b610db7610db06111f6565b8383611498565b5050565b7f9f2df0fed2c77648de5860a4cc508cd0818c85b8b8a1ab4ceeef8d981c8956a6610de581611281565b610e3f600c805480602002602001604051908101604052809291908181526020018280548015610e3457602002820191906000526020600020905b815481526020019060010190808311610e20575b505050505084611226565b15610e7f576040517f08c379a0000000000000000000000000000000000000000000000000000000008152600401610e7690613117565b60405180910390fd5b600c83908060018154018082558091505060019003906000526020600020016000909190919091505581600d6000858152602001908152602001600020819055507f28d967bcded44bffdc325b75e12506eb1ce8a880b0d411e891d3a6a9ce6507628383604051610ef1929190613137565b60405180910390a1505050565b610f098484846106df565b610f1584848484611607565b50505050565b6060610f2682611131565b506000610f316117be565b90506000815111610f515760405180602001604052806000815250610f7c565b80610f5b846117d5565b604051602001610f6c92919061319c565b6040516020818303038152906040525b915050919050565b7f9f2df0fed2c77648de5860a4cc508cd0818c85b8b8a1ab4ceeef8d981c8956a681565b610fb1826107e1565b610fba81611281565b610fc48383611387565b50505050565b6000600560008473ffffffffffffffffffffffffffffffffffffffff1673ffffffffffffffffffffffffffffffffffffffff16815260200190815260200160002060008373ffffffffffffffffffffffffffffffffffffffff1673ffffffffffffffffffffffffffffffffffffffff16815260200190815260200160002060009054906101000a900460ff16905092915050565b6000600d6000838152602001908152602001600020549050919050565b6000600e6000848152602001908152602001600020600083815260200190815260200160002060009054906101000a900460ff16905092915050565b60007f7965db0b000000000000000000000000000000000000000000000000000000007bffffffffffffffffffffffffffffffffffffffffffffffffffffffff1916827bffffffffffffffffffffffffffffffffffffffffffffffffffffffff1916148061112a5750611129826118a3565b5b9050919050565b60008061113d8361191d565b9050600073ffffffffffffffffffffffffffffffffffffffff168173ffffffffffffffffffffffffffffffffffffffff16036111b057826040517f7e2732890000000000000000000000000000000000000000000000000000000081526004016111a791906129a1565b60405180910390fd5b80915050919050565b60006004600083815260200190815260200160002060009054906101000a900473ffffffffffffffffffffffffffffffffffffffff169050919050565b600033905090565b61120b838383600161195a565b505050565b600061121d848484611b1f565b90509392505050565b600080600090505b8351811015611275578284828151811061124b5761124a61309c565b5b60200260200101510361126257600191505061127b565b808061126d90613054565b91505061122e565b50600090505b92915050565b6112928161128d6111f6565b611c3c565b50565b60006112a18383610ca1565b61137c576001600a600085815260200190815260200160002060000160008473ffffffffffffffffffffffffffffffffffffffff1673ffffffffffffffffffffffffffffffffffffffff16815260200190815260200160002060006101000a81548160ff0219169083151502179055506113196111f6565b73ffffffffffffffffffffffffffffffffffffffff168273ffffffffffffffffffffffffffffffffffffffff16847f2f8788117e7eff1d82e926ec794901d17c78024a50270940304540a733656f0d60405160405180910390a460019050611381565b600090505b92915050565b60006113938383610ca1565b1561146f576000600a600085815260200190815260200160002060000160008473ffffffffffffffffffffffffffffffffffffffff1673ffffffffffffffffffffffffffffffffffffffff16815260200190815260200160002060006101000a81548160ff02191690831515021790555061140c6111f6565b73ffffffffffffffffffffffffffffffffffffffff168273ffffffffffffffffffffffffffffffffffffffff16847ff6391f5c32d9c69d2a47ea670b442974b53935d1edc7fd64eb21e047a839171b60405160405180910390a460019050611474565b600090505b92915050565b611494828260405180602001604052806000815250611c8d565b5050565b600073ffffffffffffffffffffffffffffffffffffffff168273ffffffffffffffffffffffffffffffffffffffff160361150957816040517f5b08ba18000000000000000000000000000000000000000000000000000000008152600401611500919061290b565b60405180910390fd5b80600560008573ffffffffffffffffffffffffffffffffffffffff1673ffffffffffffffffffffffffffffffffffffffff16815260200190815260200160002060008473ffffffffffffffffffffffffffffffffffffffff1673ffffffffffffffffffffffffffffffffffffffff16815260200190815260200160002060006101000a81548160ff0219169083151502179055508173ffffffffffffffffffffffffffffffffffffffff168373ffffffffffffffffffffffffffffffffffffffff167f17307eab39ab6107e8899845ad3d59bd9653f200f220920489ca2b5937696c31836040516115fa919061279a565b60405180910390a3505050565b60008373ffffffffffffffffffffffffffffffffffffffff163b11156117b8578273ffffffffffffffffffffffffffffffffffffffff1663150b7a0261164b6111f6565b8685856040518563ffffffff1660e01b815260040161166d9493929190613215565b6020604051808303816000875af19250505080156116a957506040513d601f19601f820116820180604052508101906116a69190613276565b60015b61172d573d80600081146116d9576040519150601f19603f3d011682016040523d82523d6000602084013e6116de565b606091505b50600081510361172557836040517f64a0ae9200000000000000000000000000000000000000000000000000000000815260040161171c919061290b565b60405180910390fd5b805181602001fd5b63150b7a0260e01b7bffffffffffffffffffffffffffffffffffffffffffffffffffffffff1916817bffffffffffffffffffffffffffffffffffffffffffffffffffffffff1916146117b657836040517f64a0ae920000000000000000000000000000000000000000000000000000000081526004016117ad919061290b565b60405180910390fd5b505b50505050565b606060405180602001604052806000815250905090565b6060600060016117e484611ca9565b01905060008167ffffffffffffffff81111561180357611802612c9f565b5b6040519080825280601f01601f1916602001820160405280156118355781602001600182028036833780820191505090505b509050600082602001820190505b600115611898578080600190039150507f3031323334353637383961626364656600000000000000000000000000000000600a86061a8153600a858161188c5761188b6132a3565b5b04945060008503611843575b819350505050919050565b60007f780e9d63000000000000000000000000000000000000000000000000000000007bffffffffffffffffffffffffffffffffffffffffffffffffffffffff1916827bffffffffffffffffffffffffffffffffffffffffffffffffffffffff19161480611916575061191582611dfc565b5b9050919050565b60006002600083815260200190815260200160002060009054906101000a900473ffffffffffffffffffffffffffffffffffffffff169050919050565b80806119935750600073ffffffffffffffffffffffffffffffffffffffff168273ffffffffffffffffffffffffffffffffffffffff1614155b15611ac75760006119a384611131565b9050600073ffffffffffffffffffffffffffffffffffffffff168373ffffffffffffffffffffffffffffffffffffffff1614158015611a0e57508273ffffffffffffffffffffffffffffffffffffffff168173ffffffffffffffffffffffffffffffffffffffff1614155b8015611a215750611a1f8184610fca565b155b15611a6357826040517fa9fbf51f000000000000000000000000000000000000000000000000000000008152600401611a5a919061290b565b60405180910390fd5b8115611ac557838573ffffffffffffffffffffffffffffffffffffffff168273ffffffffffffffffffffffffffffffffffffffff167f8c5be1e5ebec7d5bd14f71427d1e84f3dd0314c0f7b2291e5b200ac8c7c3b92560405160405180910390a45b505b836004600085815260200190815260200160002060006101000a81548173ffffffffffffffffffffffffffffffffffffffff021916908373ffffffffffffffffffffffffffffffffffffffff16021790555050505050565b600080611b2d858585611ede565b9050600073ffffffffffffffffffffffffffffffffffffffff168173ffffffffffffffffffffffffffffffffffffffff1603611b7157611b6c846120f8565b611bb0565b8473ffffffffffffffffffffffffffffffffffffffff168173ffffffffffffffffffffffffffffffffffffffff1614611baf57611bae8185612141565b5b5b600073ffffffffffffffffffffffffffffffffffffffff168573ffffffffffffffffffffffffffffffffffffffff1603611bf257611bed846122a2565b611c31565b8473ffffffffffffffffffffffffffffffffffffffff168173ffffffffffffffffffffffffffffffffffffffff1614611c3057611c2f8585612373565b5b5b809150509392505050565b611c468282610ca1565b611c895780826040517fe2517d3f000000000000000000000000000000000000000000000000000000008152600401611c809291906132d2565b60405180910390fd5b5050565b611c9783836123fe565b611ca46000848484611607565b505050565b600080600090507a184f03e93ff9f4daa797ed6e38ed64bf6a1f0100000000000000008310611d07577a184f03e93ff9f4daa797ed6e38ed64bf6a1f0100000000000000008381611cfd57611cfc6132a3565b5b0492506040810190505b6d04ee2d6d415b85acef81000000008310611d44576d04ee2d6d415b85acef81000000008381611d3a57611d396132a3565b5b0492506020810190505b662386f26fc100008310611d7357662386f26fc100008381611d6957611d686132a3565b5b0492506010810190505b6305f5e1008310611d9c576305f5e1008381611d9257611d916132a3565b5b0492506008810190505b6127108310611dc1576127108381611db757611db66132a3565b5b0492506004810190505b60648310611de45760648381611dda57611dd96132a3565b5b0492506002810190505b600a8310611df3576001810190505b80915050919050565b60007f80ac58cd000000000000000000000000000000000000000000000000000000007bffffffffffffffffffffffffffffffffffffffffffffffffffffffff1916827bffffffffffffffffffffffffffffffffffffffffffffffffffffffff19161480611ec757507f5b5e139f000000000000000000000000000000000000000000000000000000007bffffffffffffffffffffffffffffffffffffffffffffffffffffffff1916827bffffffffffffffffffffffffffffffffffffffffffffffffffffffff1916145b80611ed75750611ed6826124f7565b5b9050919050565b600080611eea8461191d565b9050600073ffffffffffffffffffffffffffffffffffffffff168373ffffffffffffffffffffffffffffffffffffffff1614611f2c57611f2b818486612561565b5b600073ffffffffffffffffffffffffffffffffffffffff168173ffffffffffffffffffffffffffffffffffffffff1614611fbd57611f6e60008560008061195a565b6001600360008373ffffffffffffffffffffffffffffffffffffffff1673ffffffffffffffffffffffffffffffffffffffff168152602001908152602001600020600082825403925050819055505b600073ffffffffffffffffffffffffffffffffffffffff168573ffffffffffffffffffffffffffffffffffffffff1614612040576001600360008773ffffffffffffffffffffffffffffffffffffffff1673ffffffffffffffffffffffffffffffffffffffff168152602001908152602001600020600082825401925050819055505b846002600086815260200190815260200160002060006101000a81548173ffffffffffffffffffffffffffffffffffffffff021916908373ffffffffffffffffffffffffffffffffffffffff160217905550838573ffffffffffffffffffffffffffffffffffffffff168273ffffffffffffffffffffffffffffffffffffffff167fddf252ad1be2c89b69c2b068fc378daa952ba7f163c4a11628f55a4df523b3ef60405160405180910390a4809150509392505050565b6008805490506009600083815260200190815260200160002081905550600881908060018154018082558091505060019003906000526020600020016000909190919091505550565b600061214c83610be7565b9050600060076000848152602001908152602001600020549050818114612231576000600660008673ffffffffffffffffffffffffffffffffffffffff1673ffffffffffffffffffffffffffffffffffffffff168152602001908152602001600020600084815260200190815260200160002054905080600660008773ffffffffffffffffffffffffffffffffffffffff1673ffffffffffffffffffffffffffffffffffffffff168152602001908152602001600020600084815260200190815260200160002081905550816007600083815260200190815260200160002081905550505b6007600084815260200190815260200160002060009055600660008573ffffffffffffffffffffffffffffffffffffffff1673ffffffffffffffffffffffffffffffffffffffff16815260200190815260200160002060008381526020019081526020016000206000905550505050565b600060016008805490506122b691906132fb565b90506000600960008481526020019081526020016000205490506000600883815481106122e6576122e561309c565b5b9060005260206000200154905080600883815481106123085761230761309c565b5b9060005260206000200181905550816009600083815260200190815260200160002081905550600960008581526020019081526020016000206000905560088054806123575761235661332f565b5b6001900381819060005260206000200160009055905550505050565b6000600161238084610be7565b61238a91906132fb565b905081600660008573ffffffffffffffffffffffffffffffffffffffff1673ffffffffffffffffffffffffffffffffffffffff168152602001908152602001600020600083815260200190815260200160002081905550806007600084815260200190815260200160002081905550505050565b600073ffffffffffffffffffffffffffffffffffffffff168273ffffffffffffffffffffffffffffffffffffffff16036124705760006040517f64a0ae92000000000000000000000000000000000000000000000000000000008152600401612467919061290b565b60405180910390fd5b600061247e83836000611210565b9050600073ffffffffffffffffffffffffffffffffffffffff168173ffffffffffffffffffffffffffffffffffffffff16146124f25760006040517f73c6ac6e0000000000000000000000000000000000000000000000000000000081526004016124e9919061290b565b60405180910390fd5b505050565b60007f01ffc9a7000000000000000000000000000000000000000000000000000000007bffffffffffffffffffffffffffffffffffffffffffffffffffffffff1916827bffffffffffffffffffffffffffffffffffffffffffffffffffffffff1916149050919050565b61256c838383612625565b61262057600073ffffffffffffffffffffffffffffffffffffffff168373ffffffffffffffffffffffffffffffffffffffff16036125e157806040517f7e2732890000000000000000000000000000000000000000000000000000000081526004016125d891906129a1565b60405180910390fd5b81816040517f177e802f000000000000000000000000000000000000000000000000000000008152600401612617929190612ffc565b60405180910390fd5b505050565b60008073ffffffffffffffffffffffffffffffffffffffff168373ffffffffffffffffffffffffffffffffffffffff16141580156126dd57508273ffffffffffffffffffffffffffffffffffffffff168473ffffffffffffffffffffffffffffffffffffffff16148061269e575061269d8484610fca565b5b806126dc57508273ffffffffffffffffffffffffffffffffffffffff166126c4836111b9565b73ffffffffffffffffffffffffffffffffffffffff16145b5b90509392505050565b6000604051905090565b600080fd5b600080fd5b60007fffffffff0000000000000000000000000000000000000000000000000000000082169050919050565b61272f816126fa565b811461273a57600080fd5b50565b60008135905061274c81612726565b92915050565b600060208284031215612768576127676126f0565b5b60006127768482850161273d565b91505092915050565b60008115159050919050565b6127948161277f565b82525050565b60006020820190506127af600083018461278b565b92915050565b600081519050919050565b600082825260208201905092915050565b60005b838110156127ef5780820151818401526020810190506127d4565b60008484015250505050565b6000601f19601f8301169050919050565b6000612817826127b5565b61282181856127c0565b93506128318185602086016127d1565b61283a816127fb565b840191505092915050565b6000602082019050818103600083015261285f818461280c565b905092915050565b6000819050919050565b61287a81612867565b811461288557600080fd5b50565b60008135905061289781612871565b92915050565b6000602082840312156128b3576128b26126f0565b5b60006128c184828501612888565b91505092915050565b600073ffffffffffffffffffffffffffffffffffffffff82169050919050565b60006128f5826128ca565b9050919050565b612905816128ea565b82525050565b600060208201905061292060008301846128fc565b92915050565b61292f816128ea565b811461293a57600080fd5b50565b60008135905061294c81612926565b92915050565b60008060408385031215612969576129686126f0565b5b60006129778582860161293d565b925050602061298885828601612888565b9150509250929050565b61299b81612867565b82525050565b60006020820190506129b66000830184612992565b92915050565b6000806000606084860312156129d5576129d46126f0565b5b60006129e38682870161293d565b93505060206129f48682870161293d565b9250506040612a0586828701612888565b9150509250925092565b6000819050919050565b612a2281612a0f565b8114612a2d57600080fd5b50565b600081359050612a3f81612a19565b92915050565b600060208284031215612a5b57612a5a6126f0565b5b6000612a6984828501612a30565b91505092915050565b612a7b81612a0f565b82525050565b6000602082019050612a966000830184612a72565b92915050565b60008060408385031215612ab357612ab26126f0565b5b6000612ac185828601612888565b9250506020612ad285828601612a30565b9150509250929050565b60008060408385031215612af357612af26126f0565b5b6000612b0185828601612a30565b9250506020612b128582860161293d565b9150509250929050565b600081519050919050565b600082825260208201905092915050565b6000819050602082019050919050565b612b5181612867565b82525050565b6000612b638383612b48565b60208301905092915050565b6000602082019050919050565b6000612b8782612b1c565b612b918185612b27565b9350612b9c83612b38565b8060005b83811015612bcd578151612bb48882612b57565b9750612bbf83612b6f565b925050600181019050612ba0565b5085935050505092915050565b60006020820190508181036000830152612bf48184612b7c565b905092915050565b600060208284031215612c1257612c116126f0565b5b6000612c208482850161293d565b91505092915050565b612c328161277f565b8114612c3d57600080fd5b50565b600081359050612c4f81612c29565b92915050565b60008060408385031215612c6c57612c6b6126f0565b5b6000612c7a8582860161293d565b9250506020612c8b85828601612c40565b9150509250929050565b600080fd5b600080fd5b7f4e487b7100000000000000000000000000000000000000000000000000000000600052604160045260246000fd5b612cd7826127fb565b810181811067ffffffffffffffff82111715612cf657612cf5612c9f565b5b80604052505050565b6000612d096126e6565b9050612d158282612cce565b919050565b600067ffffffffffffffff821115612d3557612d34612c9f565b5b612d3e826127fb565b9050602081019050919050565b82818337600083830152505050565b6000612d6d612d6884612d1a565b612cff565b905082815260208101848484011115612d8957612d88612c9a565b5b612d94848285612d4b565b509392505050565b600082601f830112612db157612db0612c95565b5b8135612dc1848260208601612d5a565b91505092915050565b60008060008060808587031215612de457612de36126f0565b5b6000612df28782880161293d565b9450506020612e038782880161293d565b9350506040612e1487828801612888565b925050606085013567ffffffffffffffff811115612e3557612e346126f5565b5b612e4187828801612d9c565b91505092959194509250565b60008060408385031215612e6457612e636126f0565b5b6000612e728582860161293d565b9250506020612e838582860161293d565b9150509250929050565b7f4e487b7100000000000000000000000000000000000000000000000000000000600052602260045260246000fd5b60006002820490506001821680612ed457607f821691505b602082108103612ee757612ee6612e8d565b5b50919050565b6000606082019050612f0260008301866128fc565b612f0f6020830185612992565b612f1c60408301846128fc565b949350505050565b7f496e76616c696420617070204944000000000000000000000000000000000000600082015250565b6000612f5a600e836127c0565b9150612f6582612f24565b602082019050919050565b60006020820190508181036000830152612f8981612f4d565b9050919050565b7f557365726e616d6520616c726561647920726567697374657265640000000000600082015250565b6000612fc6601b836127c0565b9150612fd182612f90565b602082019050919050565b60006020820190508181036000830152612ff581612fb9565b9050919050565b600060408201905061301160008301856128fc565b61301e6020830184612992565b9392505050565b7f4e487b7100000000000000000000000000000000000000000000000000000000600052601160045260246000fd5b600061305f82612867565b91507fffffffffffffffffffffffffffffffffffffffffffffffffffffffffffffffff820361309157613090613025565b5b600182019050919050565b7f4e487b7100000000000000000000000000000000000000000000000000000000600052603260045260246000fd5b7f41707020494420616c7265616479206578697374730000000000000000000000600082015250565b60006131016015836127c0565b915061310c826130cb565b602082019050919050565b60006020820190508181036000830152613130816130f4565b9050919050565b600060408201905061314c6000830185612992565b6131596020830184612a72565b9392505050565b600081905092915050565b6000613176826127b5565b6131808185613160565b93506131908185602086016127d1565b80840191505092915050565b60006131a8828561316b565b91506131b4828461316b565b91508190509392505050565b600081519050919050565b600082825260208201905092915050565b60006131e7826131c0565b6131f181856131cb565b93506132018185602086016127d1565b61320a816127fb565b840191505092915050565b600060808201905061322a60008301876128fc565b61323760208301866128fc565b6132446040830185612992565b818103606083015261325681846131dc565b905095945050505050565b60008151905061327081612726565b92915050565b60006020828403121561328c5761328b6126f0565b5b600061329a84828501613261565b91505092915050565b7f4e487b7100000000000000000000000000000000000000000000000000000000600052601260045260246000fd5b60006040820190506132e760008301856128fc565b6132f46020830184612a72565b9392505050565b600061330682612867565b915061331183612867565b925082820390508181111561332957613328613025565b5b92915050565b7f4e487b7100000000000000000000000000000000000000000000000000000000600052603160045260246000fdfea2646970667358221220259558f159d90c22e477d81db7f4e1ef20f63b824f009f04fa7d4f117f1f1c5a64736f6c63430008140033",
  "linkReferences": {},
  "deployedLinkReferences": {}
}